{
  "transactions": [
    {
      "hash": "0x05f78b0d8d658dca8ac801e009520c8a29ce2bd5a5800e6913e497ac5216968d",
      "transactionType": "CALL",
      "contractName": null,
      "contractAddress": null,
      "function": null,
      "arguments": null,
      "transaction": {
        "type": "0x02",
        "from": "0xf39fd6e51aad88f6f4ce6ab8827279cfffb92266",
        "to": "0x000000000000000000000000000000000000ce10",
        "gas": "0x714d",
        "value": "0x0",
        "data": "0x",
        "nonce": "0x0",
        "accessList": []
      },
      "additionalContracts": [],
      "isFixedGasLimit": false
    },
    {
      "hash": "0x6ece16698676cbecef303ed81129a8dfa276c13f9e9e87549a4e7635323b388c",
      "transactionType": "CREATE2",
      "contractName": "Registry",
      "contractAddress": "0x281B6B3988F803cBAEfeffd32ba3252171d269B1",
      "function": null,
      "arguments": [
        "false"
      ],
      "transaction": {
        "type": "0x02",
        "from": "0xf39fd6e51aad88f6f4ce6ab8827279cfffb92266",
        "to": "0x4e59b44847b379578588920ca78fbf26c0b4956c",
        "gas": "0xd531d",
        "value": "0x0",
        "data": "0x3132330000000000000000000000000000000000000000000000000000000000608060405234801561001057600080fd5b50604051610abd380380610abd8339818101604052602081101561003357600080fd5b50518060006100496001600160e01b036100b316565b600080546001600160a01b0319166001600160a01b0383169081178255604051929350917f8be0079c531659141344cd1fd0a4f28419497f9722a3daafe3b4186f6b6457e0908290a350806100ac576000805460ff60a01b1916600160a01b1790555b50506100b7565b3390565b6109f7806100c66000396000f3fe608060405234801561001057600080fd5b50600436106100cf5760003560e01c80638932cbf41161008c578063c586579311610066578063c58657931461029e578063dcf0aaed14610315578063dd92723314610332578063f2fde38b1461034f576100cf565b80638932cbf4146102205780638da5cb5b1461028e5780638f32d59b14610296576100cf565b8063158ef93e146100d457806317c50818146100f0578063715018a6146101675780637ef50298146101715780638129fc1c146101aa578063853db323146101b2575b600080fd5b6100dc610375565b604080519115158252519081900360200190f35b6100dc6004803603604081101561010657600080fd5b810190602081018135600160201b81111561012057600080fd5b82018360208201111561013257600080fd5b803590602001918460208302840111600160201b8311171561015357600080fd5b9193509150356001600160a01b0316610385565b61016f610403565b005b61018e6004803603602081101561018757600080fd5b50356104a6565b604080516001600160a01b039092168252519081900360200190f35b61016f6104c1565b61018e600480360360208110156101c857600080fd5b810190602081018135600160201b8111156101e257600080fd5b8201836020820111156101f457600080fd5b803590602001918460018302840111600160201b8311171561021557600080fd5b50909250905061053e565b61018e6004803603602081101561023657600080fd5b810190602081018135600160201b81111561025057600080fd5b82018360208201111561026257600080fd5b803590602001918460018302840111600160201b8311171561028357600080fd5b50909250905061058f565b61018e61064e565b6100dc61065d565b61016f600480360360408110156102b457600080fd5b810190602081018135600160201b8111156102ce57600080fd5b8201836020820111156102e057600080fd5b803590602001918460018302840111600160201b8311171561030157600080fd5b9193509150356001600160a01b0316610681565b61018e6004803603602081101561032b57600080fd5b5035610799565b61018e6004803603602081101561034857600080fd5b503561081e565b61016f6004803603602081101561036557600080fd5b50356001600160a01b0316610839565b600054600160a01b900460ff1681565b6000805b838110156103f657826001600160a01b0316600160008787858181106103ab57fe5b60209081029290920135835250810191909152604001600020546001600160a01b031614156103de5760019150506103fc565b6103ef81600163ffffffff61089e16565b9050610389565b50600090505b9392505050565b61040b61065d565b61045c576040805162461bcd60e51b815260206004820181905260248201527f4f776e61626c653a2063616c6c6572206973206e6f7420746865206f776e6572604482015290519081900360640190fd5b600080546040516001600160a01b03909116907f8be0079c531659141344cd1fd0a4f28419497f9722a3daafe3b4186f6b6457e0908390a3600080546001600160a01b0319169055565b6001602052600090815260409020546001600160a01b031681565b600054600160a01b900460ff1615610520576040805162461bcd60e51b815260206004820152601c60248201527f636f6e747261637420616c726561647920696e697469616c697a656400000000604482015290519081900360640190fd5b6000805460ff60a01b1916600160a01b17905561053c336108f8565b565b6000808383604051602001808383808284376040805191909301818103601f19018252835280516020918201206000908152600190915291909120546001600160a01b031698975050505050505050565b6000808383604051602001808383808284376040805191909301818103601f19018252835280516020918201206000818152600190925292902054919550506001600160a01b03161515925061062f915050576040805162461bcd60e51b815260206004820181905260248201527f6964656e74696669657220686173206e6f20726567697374727920656e747279604482015290519081900360640190fd5b6000908152600160205260409020546001600160a01b03169392505050565b6000546001600160a01b031690565b600080546001600160a01b0316610672610998565b6001600160a01b031614905090565b61068961065d565b6106da576040805162461bcd60e51b815260206004820181905260248201527f4f776e61626c653a2063616c6c6572206973206e6f7420746865206f776e6572604482015290519081900360640190fd5b60008383604051602001808383808284376040805191909301818103601f19018252808452815160209283012060008181526001845285902080546001600160a01b0319166001600160a01b038c169081179091558383529282018b905297509095508694507f4166d073a7a5e704ce0db7113320f88da2457f872d46dc020c805c562c1582a09350899289925081908101848480828437600083820152604051601f909101601f19169092018290039550909350505050a350505050565b6000818152600160205260408120546001600160a01b0316610802576040805162461bcd60e51b815260206004820181905260248201527f6964656e74696669657220686173206e6f20726567697374727920656e747279604482015290519081900360640190fd5b506000908152600160205260409020546001600160a01b031690565b6000908152600160205260409020546001600160a01b031690565b61084161065d565b610892576040805162461bcd60e51b815260206004820181905260248201527f4f776e61626c653a2063616c6c6572206973206e6f7420746865206f776e6572604482015290519081900360640190fd5b61089b816108f8565b50565b6000828201838110156103fc576040805162461bcd60e51b815260206004820152601b60248201527f536166654d6174683a206164646974696f6e206f766572666c6f770000000000604482015290519081900360640190fd5b6001600160a01b03811661093d5760405162461bcd60e51b815260040180806020018281038252602681526020018061099d6026913960400191505060405180910390fd5b600080546040516001600160a01b03808516939216917f8be0079c531659141344cd1fd0a4f28419497f9722a3daafe3b4186f6b6457e091a3600080546001600160a01b0319166001600160a01b0392909216919091179055565b339056fe4f776e61626c653a206e6577206f776e657220697320746865207a65726f2061646472657373a265627a7a72315820d3d14a61b2175a33bc9ac99cf2b507a44f80a285cebdbc2442a89d3b5eef7b5364736f6c634300051100320000000000000000000000000000000000000000000000000000000000000000",
        "nonce": "0x1",
        "accessList": []
      },
      "additionalContracts": [],
      "isFixedGasLimit": false
    },
    {
      "hash": "0xdac5a550b6c9a64f65c6367b713d6113ba4f6eab338de605c86f01aa9b28d1bb",
      "transactionType": "CALL",
      "contractName": null,
      "contractAddress": "0x000000000000000000000000000000000000ce10",
      "function": "_setAndInitializeImplementation(address,bytes)",
      "arguments": [
        "0x281B6B3988F803cBAEfeffd32ba3252171d269B1",
        "0x8129fc1c"
      ],
      "transaction": {
        "type": "0x02",
        "from": "0xf39fd6e51aad88f6f4ce6ab8827279cfffb92266",
        "to": "0x000000000000000000000000000000000000ce10",
        "gas": "0x7618",
        "value": "0x0",
        "data": "0x03386ba3000000000000000000000000281b6b3988f803cbaefeffd32ba3252171d269b1000000000000000000000000000000000000000000000000000000000000004000000000000000000000000000000000000000000000000000000000000000048129fc1c00000000000000000000000000000000000000000000000000000000",
        "nonce": "0x2",
        "accessList": []
      },
      "additionalContracts": [],
      "isFixedGasLimit": false
    },
    {
      "hash": "0x728d6c9af61bee2b6e88eb5d242291b4a332cfed0b05a9ce5264c71339a7e256",
      "transactionType": "CREATE",
      "contractName": "Proxy",
      "contractAddress": "0xCf7Ed3AccA5a467e9e704C703E8D87F634fB0Fc9",
      "function": null,
      "arguments": null,
      "transaction": {
        "type": "0x02",
        "from": "0xf39fd6e51aad88f6f4ce6ab8827279cfffb92266",
        "gas": "0x92552",
        "value": "0x0",
        "data": "0x608060405234801561001057600080fd5b50610023336001600160e01b0361002816565b6100e6565b6001600160a01b038116610077576040805162461bcd60e51b815260206004820152601160248201527006f776e65722063616e6e6f74206265203607c1b604482015290519081900360640190fd5b604080517f656970313936372e70726f78792e61646d696e000000000000000000000000008152905190819003601301812060001901828155906001600160a01b038316907f50146d0e3c60aa1d17a70635b05494f864e86144a2201275021014fbf08bafe290600090a25050565b6106e5806100f56000396000f3fe60806040526004361061004a5760003560e01c806303386ba31461015e57806342404e07146101e0578063bb913f4114610211578063d29d44ee14610244578063f7e6af8014610277575b604080517f656970313936372e70726f78792e696d706c656d656e746174696f6e000000008152905190819003601c0190206000190180546001600160a01b0381166100d5576040805162461bcd60e51b8152602060048201526015602482015274139bc8125b5c1b195b595b9d185d1a5bdb881cd95d605a1b604482015290519081900360640190fd5b6100de8161028c565b61012a576040805162461bcd60e51b8152602060048201526018602482015277496e76616c696420636f6e7472616374206164647265737360401b604482015290519081900360640190fd5b60405136810160405236600082376000803683855af43d604051818101604052816000823e82801561015a578282f35b8282fd5b6101de6004803603604081101561017457600080fd5b6001600160a01b03823516919081019060408101602082013564010000000081111561019f57600080fd5b8201836020820111156101b157600080fd5b803590602001918460018302840111640100000000831117156101d357600080fd5b5090925090506102c8565b005b3480156101ec57600080fd5b506101f56103f8565b604080516001600160a01b039092168252519081900360200190f35b34801561021d57600080fd5b506101de6004803603602081101561023457600080fd5b50356001600160a01b0316610432565b34801561025057600080fd5b506101de6004803603602081101561026757600080fd5b50356001600160a01b031661055c565b34801561028357600080fd5b506101f56105cc565b6000813f7fc5d2460186f7233c927e7db2dcc703c0e500b653ca82273b7bfad8045d85a4708181148015906102c057508115155b949350505050565b6102d06105cc565b6001600160a01b0316336001600160a01b03161461032c576040805162461bcd60e51b815260206004820152601460248201527339b2b73232b9103bb0b9903737ba1037bbb732b960611b604482015290519081900360640190fd5b61033583610432565b60006060846001600160a01b031684846040518083838082843760405192019450600093509091505080830381855af49150503d8060008114610394576040519150601f19603f3d011682016040523d82523d6000602084013e610399565b606091505b509092509050816103f1576040805162461bcd60e51b815260206004820152601e60248201527f696e697469616c697a6174696f6e2063616c6c6261636b206661696c65640000604482015290519081900360640190fd5b5050505050565b604080517f656970313936372e70726f78792e696d706c656d656e746174696f6e000000008152905190819003601c019020600019015490565b61043a6105cc565b6001600160a01b0316336001600160a01b031614610496576040805162461bcd60e51b815260206004820152601460248201527339b2b73232b9103bb0b9903737ba1037bbb732b960611b604482015290519081900360640190fd5b604080517f656970313936372e70726f78792e696d706c656d656e746174696f6e000000008152905190819003601c019020600019016104d58261028c565b610521576040805162461bcd60e51b8152602060048201526018602482015277496e76616c696420636f6e7472616374206164647265737360401b604482015290519081900360640190fd5b8181556040516001600160a01b038316907fab64f92ab780ecbf4f3866f57cee465ff36c89450dcce20237ca7a8d81fb7d1390600090a25050565b6105646105cc565b6001600160a01b0316336001600160a01b0316146105c0576040805162461bcd60e51b815260206004820152601460248201527339b2b73232b9103bb0b9903737ba1037bbb732b960611b604482015290519081900360640190fd5b6105c9816105fc565b50565b604080517232b4b8189c9b1b97383937bc3c9730b236b4b760691b81529051908190036013019020600019015490565b6001600160a01b03811661064b576040805162461bcd60e51b815260206004820152601160248201527006f776e65722063616e6e6f74206265203607c1b604482015290519081900360640190fd5b604080517232b4b8189c9b1b97383937bc3c9730b236b4b760691b8152905190819003601301812060001901828155906001600160a01b038316907f50146d0e3c60aa1d17a70635b05494f864e86144a2201275021014fbf08bafe290600090a2505056fea265627a7a72315820be6974f7197174b1a0ffb1cc44bcc6387062be493bd56fe9e2be228cb00fb24464736f6c63430005110032",
        "nonce": "0x3",
        "accessList": []
      },
      "additionalContracts": [],
      "isFixedGasLimit": false
    },
    {
      "hash": "0xbe475ca0fcac78bd153d3b11fab353340b1a2fef9dc6258d204699ca53e72076",
      "transactionType": "CREATE2",
      "contractName": null,
      "contractAddress": "0xFC3b3cFbF7d792da89Ff64bA91C65A02f8eA2527",
      "function": null,
      "arguments": null,
      "transaction": {
        "type": "0x02",
        "from": "0xf39fd6e51aad88f6f4ce6ab8827279cfffb92266",
        "to": "0x4e59b44847b379578588920ca78fbf26c0b4956c",
        "gas": "0x7c8df",
        "value": "0x0",
        "data": "0x3132330000000000000000000000000000000000000000000000000000000000608060405234801561001057600080fd5b506040516105fe3803806105fe8339818101604052602081101561003357600080fd5b50518060006100496001600160e01b036100b316565b600080546001600160a01b0319166001600160a01b0383169081178255604051929350917f8be0079c531659141344cd1fd0a4f28419497f9722a3daafe3b4186f6b6457e0908290a350806100ac576000805460ff60a01b1916600160a01b1790555b50506100b7565b3390565b610538806100c66000396000f3fe608060405234801561001057600080fd5b50600436106100935760003560e01c80638d1fdf2f116100665780638d1fdf2f146100ec5780638da5cb5b146101125780638f32d59b14610136578063e58398361461013e578063f2fde38b1461016457610093565b8063158ef93e1461009857806345c8b1a6146100b4578063715018a6146100dc5780638129fc1c146100e4575b600080fd5b6100a061018a565b604080519115158252519081900360200190f35b6100da600480360360208110156100ca57600080fd5b50356001600160a01b031661019a565b005b6100da610202565b6100da610293565b6100da6004803603602081101561010257600080fd5b50356001600160a01b0316610310565b61011a61037e565b604080516001600160a01b039092168252519081900360200190f35b6100a061038d565b6100a06004803603602081101561015457600080fd5b50356001600160a01b03166103b1565b6100da6004803603602081101561017a57600080fd5b50356001600160a01b03166103c6565b600054600160a01b900460ff1681565b6101a261038d565b6101e1576040805162461bcd60e51b815260206004820181905260248201526000805160206104e4833981519152604482015290519081900360640190fd5b6001600160a01b03166000908152600160205260409020805460ff19169055565b61020a61038d565b610249576040805162461bcd60e51b815260206004820181905260248201526000805160206104e4833981519152604482015290519081900360640190fd5b600080546040516001600160a01b03909116907f8be0079c531659141344cd1fd0a4f28419497f9722a3daafe3b4186f6b6457e0908390a3600080546001600160a01b0319169055565b600054600160a01b900460ff16156102f2576040805162461bcd60e51b815260206004820152601c60248201527f636f6e747261637420616c726561647920696e697469616c697a656400000000604482015290519081900360640190fd5b6000805460ff60a01b1916600160a01b17905561030e33610419565b565b61031861038d565b610357576040805162461bcd60e51b815260206004820181905260248201526000805160206104e4833981519152604482015290519081900360640190fd5b6001600160a01b03166000908152600160208190526040909120805460ff19169091179055565b6000546001600160a01b031690565b600080546001600160a01b03166103a26104b9565b6001600160a01b031614905090565b60016020526000908152604090205460ff1681565b6103ce61038d565b61040d576040805162461bcd60e51b815260206004820181905260248201526000805160206104e4833981519152604482015290519081900360640190fd5b61041681610419565b50565b6001600160a01b03811661045e5760405162461bcd60e51b81526004018080602001828103825260268152602001806104be6026913960400191505060405180910390fd5b600080546040516001600160a01b03808516939216917f8be0079c531659141344cd1fd0a4f28419497f9722a3daafe3b4186f6b6457e091a3600080546001600160a01b0319166001600160a01b0392909216919091179055565b339056fe4f776e61626c653a206e6577206f776e657220697320746865207a65726f20616464726573734f776e61626c653a2063616c6c6572206973206e6f7420746865206f776e6572a265627a7a723158209e14825571755da55abe251c9b22befeeeda7c99a89223cbb38933f28dd09aff64736f6c634300051100320000000000000000000000000000000000000000000000000000000000000000",
        "nonce": "0x4",
        "accessList": []
      },
      "additionalContracts": [],
      "isFixedGasLimit": false
    },
    {
      "hash": "0x5dd48b9215f0bb50378b42c7062df6463c5550e2642db2aea157a33fa8ba51a6",
      "transactionType": "CALL",
      "contractName": "Proxy",
      "contractAddress": "0xCf7Ed3AccA5a467e9e704C703E8D87F634fB0Fc9",
      "function": "_setAndInitializeImplementation(address,bytes)",
      "arguments": [
        "0xFC3b3cFbF7d792da89Ff64bA91C65A02f8eA2527",
        "0x8129fc1c"
      ],
      "transaction": {
        "type": "0x02",
        "from": "0xf39fd6e51aad88f6f4ce6ab8827279cfffb92266",
        "to": "0xcf7ed3acca5a467e9e704c703e8d87f634fb0fc9",
        "gas": "0x19846",
        "value": "0x0",
        "data": "0x03386ba3000000000000000000000000fc3b3cfbf7d792da89ff64ba91c65a02f8ea2527000000000000000000000000000000000000000000000000000000000000004000000000000000000000000000000000000000000000000000000000000000048129fc1c00000000000000000000000000000000000000000000000000000000",
        "nonce": "0x5",
        "accessList": []
      },
      "additionalContracts": [],
      "isFixedGasLimit": false
    }
  ],
  "receipts": [
    {
      "transactionHash": "0x05f78b0d8d658dca8ac801e009520c8a29ce2bd5a5800e6913e497ac5216968d",
      "transactionIndex": "0x0",
      "blockHash": "0x18d6ad53b0966b7c8a6de062293673ee51809109a50866a17cec29ef97eb5088",
      "blockNumber": "0x1",
      "from": "0xf39Fd6e51aad88F6F4ce6aB8827279cffFb92266",
      "to": "0x000000000000000000000000000000000000ce10",
      "cumulativeGasUsed": "0x5208",
      "gasUsed": "0x5208",
      "contractAddress": null,
      "logs": [],
      "status": "0x1",
      "logsBloom": "0x00000000000000000000000000000000000000000000000000000000000000000000000000000000000000000000000000000000000000000000000000000000000000000000000000000000000000000000000000000000000000000000000000000000000000000000000000000000000000000000000000000000000000000000000000000000000000000000000000000000000000000000000000000000000000000000000000000000000000000000000000000000000000000000000000000000000000000000000000000000000000000000000000000000000000000000000000000000000000000000000000000000000000000000000000000000",
      "type": "0x2",
      "effectiveGasPrice": "0xee6b2800"
    },
    {
      "transactionHash": "0x6ece16698676cbecef303ed81129a8dfa276c13f9e9e87549a4e7635323b388c",
      "transactionIndex": "0x0",
      "blockHash": "0xcc377f7599247848daafde19b1e28a00aea1a52095223e311b922ae4d515c7de",
      "blockNumber": "0x2",
      "from": "0xf39Fd6e51aad88F6F4ce6aB8827279cffFb92266",
      "to": "0x4e59b44847b379578588920cA78FbF26c0B4956C",
      "cumulativeGasUsed": "0x9a644",
      "gasUsed": "0x9a644",
      "contractAddress": null,
      "logs": [
        {
          "address": "0x281B6B3988F803cBAEfeffd32ba3252171d269B1",
          "topics": [
            "0x8be0079c531659141344cd1fd0a4f28419497f9722a3daafe3b4186f6b6457e0",
            "0x0000000000000000000000000000000000000000000000000000000000000000",
            "0x0000000000000000000000004e59b44847b379578588920ca78fbf26c0b4956c"
          ],
          "data": "0x",
          "blockHash": "0xcc377f7599247848daafde19b1e28a00aea1a52095223e311b922ae4d515c7de",
          "blockNumber": "0x2",
          "transactionHash": "0x6ece16698676cbecef303ed81129a8dfa276c13f9e9e87549a4e7635323b388c",
          "transactionIndex": "0x0",
          "logIndex": "0x0",
          "transactionLogIndex": "0x0",
          "removed": false
        }
      ],
      "status": "0x1",
      "logsBloom": "0x00000000000000000000000000000000000000000000000000800000000000000000000000000000000000000000000000000000000000080000000000000000000000100000000000000000000000000001000000000000000000000000000000000000020000000000000000000800000000000000000000000000000000400000000000000000000000000000000000000000001000000000000000000000000000000001000000000000000000000000000000000000000000000000000000000000000000000000000000000000000000000000000000000000000020000000000000000000000000000000000080000000000000000000000000000001",
      "type": "0x2",
      "effectiveGasPrice": "0xe6fa7a58"
    },
    {
      "transactionHash": "0xdac5a550b6c9a64f65c6367b713d6113ba4f6eab338de605c86f01aa9b28d1bb",
      "transactionIndex": "0x0",
      "blockHash": "0x36796c8f4f40f81f56a363688daa2c758a4010f6e6a04ac7b5b2fb40ffbc66be",
      "blockNumber": "0x3",
      "from": "0xf39Fd6e51aad88F6F4ce6aB8827279cffFb92266",
      "to": "0x000000000000000000000000000000000000ce10",
      "cumulativeGasUsed": "0x5580",
      "gasUsed": "0x5580",
      "contractAddress": null,
      "logs": [],
      "status": "0x1",
      "logsBloom": "0x00000000000000000000000000000000000000000000000000000000000000000000000000000000000000000000000000000000000000000000000000000000000000000000000000000000000000000000000000000000000000000000000000000000000000000000000000000000000000000000000000000000000000000000000000000000000000000000000000000000000000000000000000000000000000000000000000000000000000000000000000000000000000000000000000000000000000000000000000000000000000000000000000000000000000000000000000000000000000000000000000000000000000000000000000000000",
      "type": "0x2",
      "effectiveGasPrice": "0xe0bb96c2"
    },
    {
      "transactionHash": "0x728d6c9af61bee2b6e88eb5d242291b4a332cfed0b05a9ce5264c71339a7e256",
      "transactionIndex": "0x1",
      "blockHash": "0x36796c8f4f40f81f56a363688daa2c758a4010f6e6a04ac7b5b2fb40ffbc66be",
      "blockNumber": "0x3",
      "from": "0xf39Fd6e51aad88F6F4ce6aB8827279cffFb92266",
      "to": null,
      "cumulativeGasUsed": "0x75f02",
      "gasUsed": "0x70982",
      "contractAddress": "0xCf7Ed3AccA5a467e9e704C703E8D87F634fB0Fc9",
      "logs": [
        {
          "address": "0xCf7Ed3AccA5a467e9e704C703E8D87F634fB0Fc9",
          "topics": [
            "0x50146d0e3c60aa1d17a70635b05494f864e86144a2201275021014fbf08bafe2",
            "0x000000000000000000000000f39fd6e51aad88f6f4ce6ab8827279cfffb92266"
          ],
          "data": "0x",
          "blockHash": "0x36796c8f4f40f81f56a363688daa2c758a4010f6e6a04ac7b5b2fb40ffbc66be",
          "blockNumber": "0x3",
          "transactionHash": "0x728d6c9af61bee2b6e88eb5d242291b4a332cfed0b05a9ce5264c71339a7e256",
          "transactionIndex": "0x1",
          "logIndex": "0x1",
          "transactionLogIndex": "0x0",
          "removed": false
        }
      ],
      "status": "0x1",
      "logsBloom": "0x00000000000000000000000000000000000000000000000000000000000000000000000000000000000000000000480000000000000000000000000000000001000000000000000000000000000000000000000000000000000000001000000000000000000000000000000100000000000000000000100000000000000000000000000008000000000000000000000000000000000000000000000000000000000000000000000000000000000000000000000000000000000000000000000000000000000000200000000000000000000000002000000000000000000000000000000000000000000000000000000000000000000000000000000000000000",
      "type": "0x2",
      "effectiveGasPrice": "0xe0bb96c2"
    },
    {
      "transactionHash": "0xbe475ca0fcac78bd153d3b11fab353340b1a2fef9dc6258d204699ca53e72076",
      "transactionIndex": "0x2",
      "blockHash": "0x36796c8f4f40f81f56a363688daa2c758a4010f6e6a04ac7b5b2fb40ffbc66be",
      "blockNumber": "0x3",
      "from": "0xf39Fd6e51aad88F6F4ce6aB8827279cffFb92266",
      "to": "0x4e59b44847b379578588920cA78FbF26c0B4956C",
      "cumulativeGasUsed": "0xd0233",
      "gasUsed": "0x5a331",
      "contractAddress": null,
      "logs": [
        {
          "address": "0xFC3b3cFbF7d792da89Ff64bA91C65A02f8eA2527",
          "topics": [
            "0x8be0079c531659141344cd1fd0a4f28419497f9722a3daafe3b4186f6b6457e0",
            "0x0000000000000000000000000000000000000000000000000000000000000000",
            "0x0000000000000000000000004e59b44847b379578588920ca78fbf26c0b4956c"
          ],
          "data": "0x",
          "blockHash": "0x36796c8f4f40f81f56a363688daa2c758a4010f6e6a04ac7b5b2fb40ffbc66be",
          "blockNumber": "0x3",
          "transactionHash": "0xbe475ca0fcac78bd153d3b11fab353340b1a2fef9dc6258d204699ca53e72076",
          "transactionIndex": "0x2",
          "logIndex": "0x2",
          "transactionLogIndex": "0x0",
          "removed": false
        }
      ],
      "status": "0x1",
      "logsBloom": "0x00000000000000000000000000000000000000000000000000800000000000000000000000000000000000000000000000000000000000000000000000000000000000000000000000000000000000000001000000000000000000000000000000000000020000000000000000000800000000000000000000000000000000400000000000000000000000000000000000000000001000000000000000000000000000000001000000000000000000000000000000000000000000000000000000000000000000000000000000000000000008000000000000000000000020000000000000000000010000000000100080000000000000000000000000000000",
      "type": "0x2",
      "effectiveGasPrice": "0xe0bb96c2"
    },
    {
      "transactionHash": "0x5dd48b9215f0bb50378b42c7062df6463c5550e2642db2aea157a33fa8ba51a6",
      "transactionIndex": "0x3",
      "blockHash": "0x36796c8f4f40f81f56a363688daa2c758a4010f6e6a04ac7b5b2fb40ffbc66be",
      "blockNumber": "0x3",
      "from": "0xf39Fd6e51aad88F6F4ce6aB8827279cffFb92266",
      "to": "0xCf7Ed3AccA5a467e9e704C703E8D87F634fB0Fc9",
      "cumulativeGasUsed": "0xe29c9",
      "gasUsed": "0x12796",
      "contractAddress": null,
      "logs": [
        {
          "address": "0xCf7Ed3AccA5a467e9e704C703E8D87F634fB0Fc9",
          "topics": [
            "0xab64f92ab780ecbf4f3866f57cee465ff36c89450dcce20237ca7a8d81fb7d13",
            "0x000000000000000000000000fc3b3cfbf7d792da89ff64ba91c65a02f8ea2527"
          ],
          "data": "0x",
          "blockHash": "0x36796c8f4f40f81f56a363688daa2c758a4010f6e6a04ac7b5b2fb40ffbc66be",
          "blockNumber": "0x3",
          "transactionHash": "0x5dd48b9215f0bb50378b42c7062df6463c5550e2642db2aea157a33fa8ba51a6",
          "transactionIndex": "0x3",
          "logIndex": "0x6",
          "transactionLogIndex": "0x0",
          "removed": false
        },
        {
          "address": "0xCf7Ed3AccA5a467e9e704C703E8D87F634fB0Fc9",
          "topics": [
            "0x8be0079c531659141344cd1fd0a4f28419497f9722a3daafe3b4186f6b6457e0",
            "0x0000000000000000000000000000000000000000000000000000000000000000",
            "0x000000000000000000000000f39fd6e51aad88f6f4ce6ab8827279cfffb92266"
          ],
          "data": "0x",
          "blockHash": "0x36796c8f4f40f81f56a363688daa2c758a4010f6e6a04ac7b5b2fb40ffbc66be",
          "blockNumber": "0x3",
          "transactionHash": "0x5dd48b9215f0bb50378b42c7062df6463c5550e2642db2aea157a33fa8ba51a6",
          "transactionIndex": "0x3",
          "logIndex": "0x7",
          "transactionLogIndex": "0x1",
          "removed": false
        }
      ],
      "status": "0x1",
      "logsBloom": "0x00000000000000000000000000000000000000000000000000800040000000000000000000000000000000000000080000000000000000000000000000000001000000000000000040000000000000000001000000000000000000000000000000000000020000002000000100000800000000000000000000000000000000400000000008000000000000000000000000000000000000000000000000000000000000000000000000000000000000000000000000000000200000000000000000000020000000200000000000000000000000002000000000000000000020000000000000000000000004000000000000000000000000000000000000000000",
      "type": "0x2",
      "effectiveGasPrice": "0xe0bb96c2"
    }
  ],
  "libraries": [],
  "pending": [],
  "returns": {},
  "timestamp": 1704822098,
  "chain": 31337,
  "multi": false,
  "commit": "00fee61f2"
}