{
  "transactions": [
    {
      "hash": "0x05f78b0d8d658dca8ac801e009520c8a29ce2bd5a5800e6913e497ac5216968d",
      "transactionType": "CALL",
      "contractName": null,
      "contractAddress": null,
      "function": null,
      "arguments": null,
      "transaction": {
        "type": "0x02",
        "from": "0xf39fd6e51aad88f6f4ce6ab8827279cfffb92266",
        "to": "0x000000000000000000000000000000000000ce10",
        "gas": "0x714d",
        "value": "0x0",
        "data": "0x",
        "nonce": "0x0",
        "accessList": []
      },
      "additionalContracts": [],
      "isFixedGasLimit": false
    },
    {
      "hash": "0x6ece16698676cbecef303ed81129a8dfa276c13f9e9e87549a4e7635323b388c",
      "transactionType": "CREATE2",
      "contractName": "Registry",
      "contractAddress": "0x281B6B3988F803cBAEfeffd32ba3252171d269B1",
      "function": null,
      "arguments": [
        "false"
      ],
      "transaction": {
        "type": "0x02",
        "from": "0xf39fd6e51aad88f6f4ce6ab8827279cfffb92266",
        "to": "0x4e59b44847b379578588920ca78fbf26c0b4956c",
        "gas": "0xd531d",
        "value": "0x0",
        "data": "0x3132330000000000000000000000000000000000000000000000000000000000608060405234801561001057600080fd5b50604051610abd380380610abd8339818101604052602081101561003357600080fd5b50518060006100496001600160e01b036100b316565b600080546001600160a01b0319166001600160a01b0383169081178255604051929350917f8be0079c531659141344cd1fd0a4f28419497f9722a3daafe3b4186f6b6457e0908290a350806100ac576000805460ff60a01b1916600160a01b1790555b50506100b7565b3390565b6109f7806100c66000396000f3fe608060405234801561001057600080fd5b50600436106100cf5760003560e01c80638932cbf41161008c578063c586579311610066578063c58657931461029e578063dcf0aaed14610315578063dd92723314610332578063f2fde38b1461034f576100cf565b80638932cbf4146102205780638da5cb5b1461028e5780638f32d59b14610296576100cf565b8063158ef93e146100d457806317c50818146100f0578063715018a6146101675780637ef50298146101715780638129fc1c146101aa578063853db323146101b2575b600080fd5b6100dc610375565b604080519115158252519081900360200190f35b6100dc6004803603604081101561010657600080fd5b810190602081018135600160201b81111561012057600080fd5b82018360208201111561013257600080fd5b803590602001918460208302840111600160201b8311171561015357600080fd5b9193509150356001600160a01b0316610385565b61016f610403565b005b61018e6004803603602081101561018757600080fd5b50356104a6565b604080516001600160a01b039092168252519081900360200190f35b61016f6104c1565b61018e600480360360208110156101c857600080fd5b810190602081018135600160201b8111156101e257600080fd5b8201836020820111156101f457600080fd5b803590602001918460018302840111600160201b8311171561021557600080fd5b50909250905061053e565b61018e6004803603602081101561023657600080fd5b810190602081018135600160201b81111561025057600080fd5b82018360208201111561026257600080fd5b803590602001918460018302840111600160201b8311171561028357600080fd5b50909250905061058f565b61018e61064e565b6100dc61065d565b61016f600480360360408110156102b457600080fd5b810190602081018135600160201b8111156102ce57600080fd5b8201836020820111156102e057600080fd5b803590602001918460018302840111600160201b8311171561030157600080fd5b9193509150356001600160a01b0316610681565b61018e6004803603602081101561032b57600080fd5b5035610799565b61018e6004803603602081101561034857600080fd5b503561081e565b61016f6004803603602081101561036557600080fd5b50356001600160a01b0316610839565b600054600160a01b900460ff1681565b6000805b838110156103f657826001600160a01b0316600160008787858181106103ab57fe5b60209081029290920135835250810191909152604001600020546001600160a01b031614156103de5760019150506103fc565b6103ef81600163ffffffff61089e16565b9050610389565b50600090505b9392505050565b61040b61065d565b61045c576040805162461bcd60e51b815260206004820181905260248201527f4f776e61626c653a2063616c6c6572206973206e6f7420746865206f776e6572604482015290519081900360640190fd5b600080546040516001600160a01b03909116907f8be0079c531659141344cd1fd0a4f28419497f9722a3daafe3b4186f6b6457e0908390a3600080546001600160a01b0319169055565b6001602052600090815260409020546001600160a01b031681565b600054600160a01b900460ff1615610520576040805162461bcd60e51b815260206004820152601c60248201527f636f6e747261637420616c726561647920696e697469616c697a656400000000604482015290519081900360640190fd5b6000805460ff60a01b1916600160a01b17905561053c336108f8565b565b6000808383604051602001808383808284376040805191909301818103601f19018252835280516020918201206000908152600190915291909120546001600160a01b031698975050505050505050565b6000808383604051602001808383808284376040805191909301818103601f19018252835280516020918201206000818152600190925292902054919550506001600160a01b03161515925061062f915050576040805162461bcd60e51b815260206004820181905260248201527f6964656e74696669657220686173206e6f20726567697374727920656e747279604482015290519081900360640190fd5b6000908152600160205260409020546001600160a01b03169392505050565b6000546001600160a01b031690565b600080546001600160a01b0316610672610998565b6001600160a01b031614905090565b61068961065d565b6106da576040805162461bcd60e51b815260206004820181905260248201527f4f776e61626c653a2063616c6c6572206973206e6f7420746865206f776e6572604482015290519081900360640190fd5b60008383604051602001808383808284376040805191909301818103601f19018252808452815160209283012060008181526001845285902080546001600160a01b0319166001600160a01b038c169081179091558383529282018b905297509095508694507f4166d073a7a5e704ce0db7113320f88da2457f872d46dc020c805c562c1582a09350899289925081908101848480828437600083820152604051601f909101601f19169092018290039550909350505050a350505050565b6000818152600160205260408120546001600160a01b0316610802576040805162461bcd60e51b815260206004820181905260248201527f6964656e74696669657220686173206e6f20726567697374727920656e747279604482015290519081900360640190fd5b506000908152600160205260409020546001600160a01b031690565b6000908152600160205260409020546001600160a01b031690565b61084161065d565b610892576040805162461bcd60e51b815260206004820181905260248201527f4f776e61626c653a2063616c6c6572206973206e6f7420746865206f776e6572604482015290519081900360640190fd5b61089b816108f8565b50565b6000828201838110156103fc576040805162461bcd60e51b815260206004820152601b60248201527f536166654d6174683a206164646974696f6e206f766572666c6f770000000000604482015290519081900360640190fd5b6001600160a01b03811661093d5760405162461bcd60e51b815260040180806020018281038252602681526020018061099d6026913960400191505060405180910390fd5b600080546040516001600160a01b03808516939216917f8be0079c531659141344cd1fd0a4f28419497f9722a3daafe3b4186f6b6457e091a3600080546001600160a01b0319166001600160a01b0392909216919091179055565b339056fe4f776e61626c653a206e6577206f776e657220697320746865207a65726f2061646472657373a265627a7a72315820d3d14a61b2175a33bc9ac99cf2b507a44f80a285cebdbc2442a89d3b5eef7b5364736f6c634300051100320000000000000000000000000000000000000000000000000000000000000000",
        "nonce": "0x1",
        "accessList": []
      },
      "additionalContracts": [],
      "isFixedGasLimit": false
    },
    {
      "hash": "0xdac5a550b6c9a64f65c6367b713d6113ba4f6eab338de605c86f01aa9b28d1bb",
      "transactionType": "CALL",
      "contractName": null,
      "contractAddress": "0x000000000000000000000000000000000000ce10",
      "function": null,
      "arguments": null,
      "transaction": {
        "type": "0x02",
        "from": "0xf39fd6e51aad88f6f4ce6ab8827279cfffb92266",
        "to": "0x000000000000000000000000000000000000ce10",
        "gas": "0x7618",
        "value": "0x0",
        "data": "0x03386ba3000000000000000000000000281b6b3988f803cbaefeffd32ba3252171d269b1000000000000000000000000000000000000000000000000000000000000004000000000000000000000000000000000000000000000000000000000000000048129fc1c00000000000000000000000000000000000000000000000000000000",
        "nonce": "0x2",
        "accessList": []
      },
      "additionalContracts": [],
      "isFixedGasLimit": false
    },
    {
      "hash": "0xee636d36633986bc26103f7f1cdb8364e317cf5238a34f86ac62f9d48c802226",
      "transactionType": "CALL",
      "contractName": null,
      "contractAddress": "0x000000000000000000000000000000000000ce10",
      "function": "setAddressFor(string,address)",
      "arguments": [
        "\"registry\"",
        "0x0000000000000000000000000000000000000001"
      ],
      "transaction": {
        "type": "0x02",
        "from": "0xf39fd6e51aad88f6f4ce6ab8827279cfffb92266",
        "to": "0x000000000000000000000000000000000000ce10",
        "gas": "0x751f",
        "value": "0x0",
        "data": "0xc58657930000000000000000000000000000000000000000000000000000000000000040000000000000000000000000000000000000000000000000000000000000000100000000000000000000000000000000000000000000000000000000000000087265676973747279000000000000000000000000000000000000000000000000",
        "nonce": "0x3",
        "accessList": []
      },
      "additionalContracts": [],
      "isFixedGasLimit": false
    }
  ],
  "receipts": [
    {
      "transactionHash": "0x05f78b0d8d658dca8ac801e009520c8a29ce2bd5a5800e6913e497ac5216968d",
      "transactionIndex": "0x0",
      "blockHash": "0x851bab5ffc91445ab957e49c83cc15e5529febc78e43490a77f74109e57953b6",
      "blockNumber": "0x1",
      "from": "0xf39Fd6e51aad88F6F4ce6aB8827279cffFb92266",
      "to": "0x000000000000000000000000000000000000ce10",
      "cumulativeGasUsed": "0x5208",
      "gasUsed": "0x5208",
      "contractAddress": null,
      "logs": [],
      "status": "0x1",
      "logsBloom": "0x00000000000000000000000000000000000000000000000000000000000000000000000000000000000000000000000000000000000000000000000000000000000000000000000000000000000000000000000000000000000000000000000000000000000000000000000000000000000000000000000000000000000000000000000000000000000000000000000000000000000000000000000000000000000000000000000000000000000000000000000000000000000000000000000000000000000000000000000000000000000000000000000000000000000000000000000000000000000000000000000000000000000000000000000000000000",
      "type": "0x2",
      "effectiveGasPrice": "0xee6b2800"
    },
    {
      "transactionHash": "0x6ece16698676cbecef303ed81129a8dfa276c13f9e9e87549a4e7635323b388c",
      "transactionIndex": "0x0",
      "blockHash": "0x24a460c73a3dfa0a59613ad99cecb1d116c668953367baeb4ba9332901544b9b",
      "blockNumber": "0x2",
      "from": "0xf39Fd6e51aad88F6F4ce6aB8827279cffFb92266",
      "to": "0x4e59b44847b379578588920cA78FbF26c0B4956C",
      "cumulativeGasUsed": "0x9a644",
      "gasUsed": "0x9a644",
      "contractAddress": null,
      "logs": [
        {
          "address": "0x281B6B3988F803cBAEfeffd32ba3252171d269B1",
          "topics": [
            "0x8be0079c531659141344cd1fd0a4f28419497f9722a3daafe3b4186f6b6457e0",
            "0x0000000000000000000000000000000000000000000000000000000000000000",
            "0x0000000000000000000000004e59b44847b379578588920ca78fbf26c0b4956c"
          ],
          "data": "0x",
          "blockHash": "0x24a460c73a3dfa0a59613ad99cecb1d116c668953367baeb4ba9332901544b9b",
          "blockNumber": "0x2",
          "transactionHash": "0x6ece16698676cbecef303ed81129a8dfa276c13f9e9e87549a4e7635323b388c",
          "transactionIndex": "0x0",
          "logIndex": "0x0",
          "transactionLogIndex": "0x0",
          "removed": false
        }
      ],
      "status": "0x1",
      "logsBloom": "0x00000000000000000000000000000000000000000000000000800000000000000000000000000000000000000000000000000000000000080000000000000000000000100000000000000000000000000001000000000000000000000000000000000000020000000000000000000800000000000000000000000000000000400000000000000000000000000000000000000000001000000000000000000000000000000001000000000000000000000000000000000000000000000000000000000000000000000000000000000000000000000000000000000000000020000000000000000000000000000000000080000000000000000000000000000001",
      "type": "0x2",
      "effectiveGasPrice": "0xe6fa7a58"
    },
    {
      "transactionHash": "0xdac5a550b6c9a64f65c6367b713d6113ba4f6eab338de605c86f01aa9b28d1bb",
      "transactionIndex": "0x1",
      "blockHash": "0x24a460c73a3dfa0a59613ad99cecb1d116c668953367baeb4ba9332901544b9b",
      "blockNumber": "0x2",
      "from": "0xf39Fd6e51aad88F6F4ce6aB8827279cffFb92266",
      "to": "0x000000000000000000000000000000000000ce10",
      "cumulativeGasUsed": "0x9fbc4",
      "gasUsed": "0x5580",
      "contractAddress": null,
      "logs": [],
      "status": "0x1",
      "logsBloom": "0x00000000000000000000000000000000000000000000000000000000000000000000000000000000000000000000000000000000000000000000000000000000000000000000000000000000000000000000000000000000000000000000000000000000000000000000000000000000000000000000000000000000000000000000000000000000000000000000000000000000000000000000000000000000000000000000000000000000000000000000000000000000000000000000000000000000000000000000000000000000000000000000000000000000000000000000000000000000000000000000000000000000000000000000000000000000",
      "type": "0x2",
      "effectiveGasPrice": "0xe6fa7a58"
    },
    {
      "transactionHash": "0xee636d36633986bc26103f7f1cdb8364e317cf5238a34f86ac62f9d48c802226",
      "transactionIndex": "0x0",
      "blockHash": "0xe1c3660e28f5f99b4afa6904dd597c50a9900c671d08069b178b952e0a331d42",
      "blockNumber": "0x3",
      "from": "0xf39Fd6e51aad88F6F4ce6aB8827279cffFb92266",
      "to": "0x000000000000000000000000000000000000ce10",
      "cumulativeGasUsed": "0x54cc",
      "gasUsed": "0x54cc",
      "contractAddress": null,
      "logs": [],
      "status": "0x1",
      "logsBloom": "0x00000000000000000000000000000000000000000000000000000000000000000000000000000000000000000000000000000000000000000000000000000000000000000000000000000000000000000000000000000000000000000000000000000000000000000000000000000000000000000000000000000000000000000000000000000000000000000000000000000000000000000000000000000000000000000000000000000000000000000000000000000000000000000000000000000000000000000000000000000000000000000000000000000000000000000000000000000000000000000000000000000000000000000000000000000000",
      "type": "0x2",
      "effectiveGasPrice": "0xe0be0652"
    }
  ],
  "libraries": [],
  "pending": [],
  "returns": {},
  "timestamp": 1704820732,
  "chain": 31337,
  "multi": false,
  "commit": "84fec9078"
}